:030000000214499E
:0C144900787FE4F6D8FD75812002149035
:0C000300000000000000000000000000F1
:0B188F00EF1FAC0670011E4C70F6222B
:1017FA00AB07AA06EB1BAE0270011A4E60097FAA5C
:08180A007E0512188F80ED220B
:10123400907120E04480F07F057E0012188FE4FF57
:10124400FE1217FA75A75575AC589071327450F0A8
:101254009071307403F0907136742FF07F18EF247E
:1012640066FDE434718D82F583E4F00FEFB433EE60
:10127400904011E4935407FF90711CE054F84FF030
:10128400904017E493547FFF90711DE054804FF019
:10129400904010E493FF5401C43333335480FE90E0
:1012A4007123E0547F4EF0EFC313543F4440FFA337
:1012B400E054804FF0904012E493FF540FFE90717D
:1012C40046E054F04EF0EFC4540FFF90714FE054D9
:1012D400F04FF0904013E493543FFF907140E0547A
:1012E400C04FF0904014E493907126F0904015E4C0
:0E12F40093907128F0904016E49390712AF0C8
:0113020022C8
:070A6E00446280428C00008D
:10130300C3906046E09470906045E09417400302F8
:101313001398E4FFFE7D807CBF906280E0F8A3E039
:10132300F9A3E0FAA3E0FB12002EE4FBFA79A87814
:1013330042120228E4FBFA798078BF12002E9062F1
:10134300841205F0906280E0FCA3E0FDA3E0FEA31D
:10135300E0FFE4FBFAF9783F12002E906280120559
:10136300F0906284E0FCA3E0FDA3E0FEA3E0FF9025
:1013730062701205F07F007E007DA07C40120D3765
:10138300E4FBFA7970784212011F1202C59060459E
:10139300EEF0A3EFF0C3906046E09470906045E0F8
:0C13A300941740077417F0A37470F02238
:1014D50075D9DD12123412000F1217DF12160A1217
:1014E50017491217BF7F021216BBC294E4906045DC
:1014F500F0A3F0C3906046E09470906045E09417C7
:10150500503212185E30051FC205C390628CE094FC
:10151500C390628BE09408400E906046E094709012
:101525006045E09417500D300305C20312130312F2
:10153500183A80BF12185E1211281215A912189AAE
:0215450080F232
:100A750042604500004262691770426043000042CF
:100A850062650000426263100041626B00621C6097
:100A9500470000000000000000000000000000000A
:100AA5000000000000000000000000000000000041
:100AB5000000000000000000000000000000000031
:100AC5000000000000000000000000000000000021
:100AD5000000000000000000000000000000000011
:100AE5000000000000000000000000000000000001
:100AF50000000000000000000000000000000000F1
:100B050000000000000000000000000000000000E0
:100B150000000000000000000000000000000000D0
:100B250000000000000000000000000000000000C0
:100B350000000000000000000000000000000000B0
:100B450000000000000000000000000000000000A0
:100B55000000000000000000000000000000000090
:100B65000000000000000000000000000000000080
:100B75000000000000000000000000000000000070
:100B85000000000000000000000000000000000060
:100B95000000000000000000000000000000000050
:100BA5000000000000000000000000000000000040
:100BB5000000000000000000000000000000000030
:100BC5000000000000000000000000000000000020
:100BD5000000000000000000000000000000000010
:100BE5000000000000000000000000000000000000
:100BF50000000000000000000000000000000000F0
:100C050000000000000000000000000000000000DF
:100C150000000000000000000000000000000000CF
:100C250000000000000000000000000000000000BF
:100C350000000000000000000000000000000000AF
:100C4500000000000000000000000000000000009F
:100C5500000000000000000000000000000000008F
:100C6500000000000000000000000000000000007F
:100C7500000000000000000000000000000000006F
:100C8500000000000000000000000000000000005F
:100C9500000000000000000000000000000000004F
:100CA5000000000000000000000000000042626734
:100CB500000060406000FFFF000000000000000031
:100CC500000000000000000000000000000000001F
:100CD500000000000000000000000000000000000F
:100CE50000000000000000000000000000000000FF
:100CF500000000000000416040004160410041608B
:040D05004200C106E1
:10160A007812E24401F278567407F278277417F2D6
:10161A0018746FF27833E4F218F27819E24401F29E
:10162A007811E24401F27817E24401F27812E244B6
:10163A0001F27814E24401F27818E24401F278D314
:10164A00E254CFF2E24410F2E254FCF2E24401F234
:0C165A0090718AE4F090718C740AF02208
:10183A00906045E07833F2A3E018F27817E24401A9
:02184A00F22288
:10062D0090626C1205FC00000000906000E0F47018
:09063D0003A3E0F460030206D2FD
:10064600906270F0A3F0906270E0FEA3E0FFC394A6
:1006560020EE9400502E90628BE0FCA3E0FDEF2587
:10066600E0FFEE33FE74002FF58274603EF583ECF6
:10067600F0A3EDF0906271E004F070CA906270E051
:1006860004F080C2E4906270F0A3F0906270E0FE25
:10069600A3E0FFC3940EEE94014003020733906279
:1006A6008BE0FCA3E0FDEF25E0FFEE33FE74472F61
:1006B600F58274603EF583ECF0A3EDF0906271E094
:0C06C60004F070C7906270E004F080BF88
:1006D200906040E025E02400F582E43460F583E098
:1006E200FFA3E0906270CFF0A3EFF090628BE0FE88
:1006F200A3E0FF906271E02FF0906270E03EF0E0C4
:10070200C313FEA3E013FF906270EEF0A3EFF0902C
:100712006040E025E02400F582E43460F583EEF0E9
:10072200A3EFF0906040E004F0E0C394204002E4C4
:01073200F0D6
:10073300E4906270F0A3F090626CE0F8A3E0F9A398
:10074300E0FAA3E0FB906271E025E0FF906270E0C5
:1007530033FE74002FF58274603EF583E0FEA3E060
:10076300FFE4FCFDEB2FFFEA3EFEED39FDEC38FC28
:1007730090626C1205F0906271E004F07006906272
:1007830070E004F0906270E07004A3E0642070A74E
:1007930090626CE0FCA3E0FDA3E0FEA3E0FF78051C
:0907A3001205B190626C1205F020
:1007AC0090626CA3A3E0FEA3E0FDAC06906268E04F
:1007BC0025E0FF906267E033FE74472FF58274608A
:1007CC003EF583ECF0A3EDF0906268E004F0700667
:1007DC00906267E004F0C3906268E0940E906267E8
:0907EC00E094014004E4F0A3F0E4
:1007F500E4906270F0A3F0906265F0A3F0906263FC
:100805007410F0A3E4F0906270E0FEA3E0FFC394DF
:100815000EEE940140030208D9EF25E0FFEE33FE0A
:1008250074472FF58274603EF583E0FCA3E0FD90EC
:100835006265E0FAA3E0FBD3ED9BEC9A40167447A2
:100845002FF58274603EF583E0FFA3E0906265CFEB
:10085500F0A3EFF0906271E025E0FF906270E03365
:10086500FE74472FF58274603EF583E0FCA3E0FD3E
:10087500906263E0FAA3E0FBC3ED9BEC9A5016741B
:10088500472FF58274603EF583E0FFA3E090626335
:10089500CFF0A3EFF0906263E0FEA3E0FFC39062A8
:1008A50066E09FFF906265E09EFED3EF9450EE9464
:1008B50000400890626B741EF0800890626BE060E7
:1008C5000214F0906271E004F07006906270E0042A
:0408D500F002080B1A
:1008D900E47F8B7E06FDFC90626CE0F8A3E0F9A34F
:1008E900E0FAA3E0FBC31205A05020200603020989
:1008F90084E47F8B7E06FDFC90626CE0F8A3E0F94E
:10090900A3E0FAA3E0FB1205A04070E4906041F077
:10091900A3F0D20690626BE0FFB41E3214F0D390BC
:10092900626AE094B8906269E0940B400CA3E024F9
:10093900FFF0906269E034FFF0C390626AE094B816
:10094900906269E0940B4003020A6D020A0DEF60A0
:1009590003020A6D200403020A6DC204C390626A8D
:10096900E09470906269E094174003020A6DA3E075
:1009790004F07006906269E004F022E47FC37E050A
:10098900FDFC90626CE0F8A3E0F9A3E0FAA3E0FBB8
:10099900D31205A04076E47F6D7E06FDFC90626C63
:1009A900E0F8A3E0F9A3E0FAA3E0FBD31205A04025
:1009B90008906041E064047053200503020A6DC287
:1009C90005906041E0C394045003E004F0E49060B2
:1009D90042F0C206D390626AE094B8906269E094EA
:1009E9000B40028069C390626AE094B8906269E042
:1009F900940B500DA3E004F07006906269E004F0D6
:100A090022906269740BF0A374B8F022E47FC37E6C
:100A190005FDFC90626CE0F8A3E0F9A3E0FAA3E01D
:100A2900FBD31205A04006906042E06037300534E0
:100A3900C2059060427401F0E4906041F0C206D3AF
:100A490090626AE09408906269E09407400DA3E01F
:100A590024FEF0906269E034FFF022906269740725
:040A6900F0A304F002
:010A6D002266
:03189A00C29422D3
:10184C00906269E0FFA3E0906045CFF0A3EFF00257
:02185C00183A38
:100D090041628D00C10141628800C10042628B00CD
:060D1900004262890000A7
:0D000F0078F2E24403F278E3E244C0F2220A
:1016BB00906288E06F6040EFF024FE601904703098
:1016CB00907123E054F8F0E0441EF09071227407FF
:1016DB00F07599188014907123E054D8F0E0441DF4
:1016EB00F09071227407F07599177869E24448F20B
:0716FB007F017E001217FAC7
:0117020022C4
:100E9D00E4906275F0A3F0A3F09062781205FC0067
:100EAD00000000E490627CF0A3F074FF90627EF08D
:100EBD00A3F0E4906275F07869E24401F2786BE298
:100ECD0030E1FAAF93EF75F010A4FFE594C4540F21
:100EDD00FDEF4DFF906276E5F0F0A3EFF07402F2B6
:100EED00906275E0C39402406D90627CE0FEA3E0D9
:100EFD00FFD3906277E09F906276E09E400CE0FF1A
:100F0D00A3E090627CCFF0A3EFF090627EE0FEA3B1
:100F1D00E0FFC3906277E09F906276E09E500CE018
:100F2D00FFA3E090627ECFF0A3EFF0906278E0F83F
:100F3D00A3E0F9A3E0FAA3E0FB906276E0FEA3E064
:100F4D00FFE4FCFDEB2FFFEA3EFEED39FDEC38FC36
:100F5D009062781205F0906275E004F0E064146020
:100F6D0003020EC4906278E0FCA3E0FDA3E0FEA3B3
:100F7D00E0FFC006C00790627CE0FEA3E0FBAA067E
:100F8D00D007D006C3EF9BFFEE9AFEED9400FDEC6B
:100F9D009400FC9062781205F0906278E0FCA3E07A
:100FAD00FDA3E0FEA3E0FFC006C00790627EE0FE59
:100FBD00A3E0FBAA06D007D006C3EF9BFFEE9AFE77
:100FCD00ED9400FDEC9400FC9062781205F09062B7
:100FDD0078E0FCA3E0FDA3E0FEA3E0FF780412059A
:100FED00B1906276EEF0A3EFF0906276E0FEA3E0B2
:010FFD00FFF4
:010FFE0022D0
:101789009062711205FC00000000120E9DE4FCFD40
:101799009062711205F0E47F0CFEFDFC906271E02D
:1017A900F8A3E0F9A3E0FAA3E0FB120475E47B0ACD
:0617B900FAF9F802050038
:1011280090626C1205FC0000000090628DE0640281
:1011380070030212337F011216BB12178990626C7A
:101148001205F090628DE070587FEA7E0BFDFC90EE
:10115800626CE0F8A3E0F9A3E0FAA3E0FBC3120590
:03116800A0503E56
:10116B00E4906270F0F012178990626C1205F0E453
:10117B007FEA7E0BFDFC90626CE0F8A3E0F9A3E044
:10118B00FAA3E0FBD31205A04006E490628DF02297
:0E119B00906270E004F0E0C3940A40CA8062E3
:0B11A90090628DE064016003021233CD
:1011B40020000FD20090628E1205FC000000001285
:1011C400187FE47F307E75FDFC90628EE0F8A3E02A
:0D11D400F9A3E0FAA3E0FBC31205A040520E
:1011E100E4906270F0F012178990626C1205F0E4DD
:1011F1007FEA7E0BFDFC90626CE0F8A3E0F9A3E0CE
:10120100FAA3E0FBD31205A0400790628D7401F0B0
:1012110022906270E004F0E0C3940A40C990628DAC
:101221007402F012182690628E1205FC0000000074
:02123100C200F9
:011233002298
:1015A90090628DE0700612062D02184C90628DE053
:1015B900B40123906269740BF0A374B8F090626966
:1015C900E0FEA3E0FF906045E06E7003A3E06F606A
:1015D9002F12184C80E790628DE0B4022390626963
:1015E9007405F0A374DCF0906269E0FEA3E0FF905B
:1015F9006045E06E7003A3E06F600512184C80E748
:0116090022BE
:10185E007F021216BB120E9D90628BEEF0A3EFF07C
:01186E002257
:0C0D1F0041629700C10241629600C103CE
:1017DF0043A820D2AF75D10178957401F2187476B1
:0B17EF00F2789174A0F21874FDF22251
:10186F007890E2541FF2E244C0F243A820D2AF2294
:101812007890E2541FF2E244A0F27892E4F208F2E5
:0418220053A8DF22C6
:03001E00021703C3
:10170300C0E0C083C082C0D075D000C0007891E231
:1017130030E728E24480F2906297E004F09062960A
:10172300E004F0A3E0C394194004E4F0D202906211
:1017330096E0C3940D4004E4F0D203D000D0D0D09F
:0617430082D083D0E032E9
:070D2B0044628E000000008D
:10174900E5B154CF42B1789CE254E3F2E24414F299
:10175900E254FCF2E24401F208E24480F2E244205D
:10176900F278A1743BF2187460F2789EE4F208F200
:10177900789CE2541FF2E244A0F253A8BFD2AF22F0
:10187F00789CE2541FF2E244C0F243A840D2AF2258
:10182600789CE2541FF2E244A0F2789EE4F208F2B9
:0418360053A8BF22D2
:030021000216665E
:10166600C0E0C0F0C083C082C0D075D000C000C04A
:1016760004C005C006C007789DE230E723E2448037
:10168600F290628EE0FCA3E0FDA3E0FEA3E024015D
:10169600FFE43EFEE43DFDE43CFC90628E1205F064
:1016A600D007D006D005D004D000D0D0D082D083C9
:0516B600D0F0D0E0328D
:040D3200C104C10532
:1017BF0043A901D2AF75D104907105E4F090710483
:1017CF007424F090710174A0F090710074FDF022F8
:030024000215477B
:10154700C0E0C083C082C0D0907101E030E74AE0BC
:101557004480F0906293E004F07006906292E00499
:10156700F0906295E004F07006906294E004F0C396
:10157700906295E0940D906294E094004006E4F048
:10158700A3F0D205C3906293E0940D906292E09429
:10159700004006E4F0A3F0D204D0D0D082D083D0AC
:0215A700E03230
:10002700020331E86480F8E933E83360110460F0D3
:10003700ED33EC337009E8FCE9FDEAFEEBFF22043F
:1000470060DED3EB9FEA9EE99DE8C2E78CF0C2F73A
:1000570095F0400CE8CCF8E9CDF9EACEFAEBCFFB06
:100067001202FC85D0F05804700320D5B3E8047061
:10007700075002B2D502033B92D5EC0460F7E4CCFB
:10008700C0E0C398F8603B94186008400DD0E0FBCF
:10009700020313E4FBFAC9FC8028E830E406E4C94C
:1000A700FBE4CAFCE830E305E4C9CACBFCE8540723
:1000B7006010F8C3E913F9EA13FAEB13FBEC13FC2E
:1000C700D8F130F52FC3E49CFCEF9BFFEE9AFEEDD1
:1000D70099FDD0E0FBEF4E4D4C701222DB0302037B
:1000E70038EC2CFCEF33FFEE33FEED33FDED30E75C
:1000F700EB020313EF2BFFEE3AFEED39FDD0E0FBE9
:1001070050130BBB000302033BED13FDEE13FEEF91
:0801170013FFEC13FC020313BB
:10011F00EC4D6011E8497017ED33EC3304600DE4DA
:10012F00FCFFFEFD22E933E8330470F802033112BD
:10013F0002FC58046009E4CC2481500628500902BF
:10014F00033B284003020338C0E0EB4A7044B980F8
:10015F0006D0E0FB020327EF4E701CBD8008EBFFBB
:10016F00EAFEE9FD80EBE98DF0A4FEE5F00202085E
:10017F00E9CDF9EAFEEBFFEF89F0A4FCE5F0CE89BB
:10018F00F0A42EFFE435F0CD89F0A42DFEE435F078
:10019F008067EF4E7005BD80D780C3EF8BF0A4ACA6
:1001AF00F0EE8BF0A42CFCE435F0F8EF8AF0A42CE1
:1001BF00E5F038FCE433CB8DF0A42CFCE5F03BF8F4
:1001CF00EE8AF0A42CFCE5F038F8E433CF89F0A4E4
:1001DF002CFCE5F038CF3400CE89F0A42FFFE5F0EA
:1001EF003EFEE433C98DF0A42EFEE5F039CD8AF042
:1001FF00A42FFFE5F03EFEE43DFD33D0E0FB5007BA
:10020F000BBB000F02033BEC2CFCEF33FFEE33FE76
:06021F00ED33FD020313A4
:1002250002033BEC5D046005E859047003020331E9
:100235001202FC580460F6EC4860F2EC7004FDFE16
:10024500FF22C860DB2481C85009C39860025006AC
:100255000203389850CAF582E9294B4A7005AB82EA
:1002650002032775F0007C1A7880C3EF9BEE9AEDA8
:1002750099400DC3EF9BFFEE9AFEED99FDE842F024
:10028500DC23ACF0D0E0FFD0E0FED0E0FDAB822077
:10029500E7101BEB60BAEC2CFCEF33FFEE33FEED01
:1002A50033FD020313E803F830E705C0F075F000ED
:1002B500EF2FFFEE33FEED33FD40B830E7C280AAE5
:1002C500EDD2E7CD33EC3392D524814006E4FFFE31
:1002D500FDFC22FCE4CFCECDCC24E0501174FF8090
:1002E500EDC3CC13CCCD13CDCE13CECF13CF04702D
:0702F500F030D5DE02059296
:100D370090626C1205F0E4FFFE7D807C3F90626C50
:100D4700E0F8A3E0F9A3E0FAA3E0FB120360700662
:100D570090626C020E9190626CE0FCA3E0FDA3E050
:100D6700FEA3E0FF120346FBA3E0FCA3E0FDA3E024
:100D7700FEA3E0FF120346FFB40108E4FFFE7D80F7
:100D87007C3F22EF64046029EB64046024EBB40128
:100D970030E4FFFEFDFC906270E0F8A3E0F9A3E009
:100DA700FAA3E0FB12036060084006E4FFFEFDFCC7
:100DB700229062701205FCFFFFFFFF906270020E27
:100DC70091E4906274F0A3F0FFFEFDFC90626CE08A
:100DD700F8A3E0F9A3E0FAA3E0FB120360505F90E9
:100DE7006270E0FCA3E0FDA3E0FEA3E0FF1202C5F2
:100DF700906274EEF0A3EFF0FDCCEECCEC1203EFB3
:100E0700C8ECC8C9EDC9CAEECACBEFCB906270E097
:100E1700FCA3E0FDA3E0FEA3E0FF12002AE4FBFA37
:100E2700F9F8120360708A90626CE0FCA3E0FDA3FE
:100E3700E0FEA3E0FF1203D990626C1205F0906206
:100E47006CE0FCA3E0FDA3E0FEA3E0FF12103390EB
:100E57006270E0F8A3E0F9A3E0FAA3E0FB12011F38
:100E67001213E79062701205F0906275E030E01798
:100E7700906270E0FCA3E0FDA3E0FEA3E0FF120395
:100E8700D99062701205F0906270E0FCA3E0FDA3B8
:060E9700E0FEA3E0FF22D3
:1002FC00E9D2E7C933E833F892D5EDD2E7CD33EC48
:07030C0033FC5002B2D522C0
:10031300EC30E7100FBF000C0EBE00080DBD00044B
:100323000BEB6014A2D5EB13FCED92E7FD2274FFF7
:10033300FCFDFEFF22E480F8A2D574FF13FC7D8050
:03034300E480EF64
:10034600ED33EC33601004700FED547F70057402CA
:0A03560092E0227404220422E42243
:1003600074F8CC6480CCC86480C8F58204604FC344
:10037000EB9FF5F0EA9E42F0E99D42F0E89C45F0E3
:10038000603C501DE5825FFFE582D313CB5BCBF46D
:100390002B5582FB50280ABA002409B90020088096
:1003A0001DE5825BFBE582D313CF5FCFF4C3132F30
:1003B0005582FF50090EBE00050DBD00010CC3EBB8
:1003C0009FF5F0EA9E42F0E99D42F0E89C45F0601E
:0903D00007CC4820E701B3EC2240
:1003D900ED33EC33600A047003BD8004ECB2E7FC32
:0103E90022F1
:1003EA0075F020800E75F010800575F0087D007E8E
:1003FA00007F003392D530D503120592EC334010BA
:10040A00EF33FFEE33FEED33FDEC33FCD5F0ED2296
:0E041A00E5F0247EA2D513CC92E7CDCEFF22D2
:1013AF0033DA929E35B16011377FE5FE392184899A
:1013BF003AAEC3FF3C1D955B3D6358473E75FDF04C
:1013CF003F3172183F800000C2D502033B02033148
:1013DF00BD80FA50F3020338ED33EC330460F17B38
:1013EF003B7AAA79B8783F12011FED33EC3392D5CF
:1013FF00247B5011A2D570DB500BED448024045098
:10140F0004A2D580CEEFFBEEFAEDF9ECF81202C58F
:10141F00EFF582F404FC1203F412002EC082901335
:10142F00AF7409120437ED33CC33D0F092D525F0D9
:0A143F00A2D57001C313CC13FD22E7
:100FFF003E9248DA3ECCCCCD3F2AAAAB400000004F
:10100F003F8000003F9837F03FB504F33FD744FCD3
:10101F003E3172173EB172173F0515913EDE5BD917
:10102F00D2078002C207EDD2E7F8CD33EC3304705C
:10103F000BBD800592D502033B02033140FBD31455
:10104F0060F2F5F07C3FEE7A00C39496C8948B4023
:10105F00230AC89469C8941A401A0AC89468C89495
:10106F001F40110AC8945AC89425400805F07A0009
:10107F00CDC2E7CDC0F09062761205F0EA2323C00F
:10108F00E0240FF582E43410F5831205E012002EF0
:10109F00ECC0E0EDC0E0EEC0E0EFC0E01205C490A0
:1010AF0062761205D412002AD0E0FBD0E0FAD0E02D
:1010BF00F9D0E0B2E7F81202289062761205F090AC
:1010CF000FFF74031204289062761205D412011FC9
:1010DF00D0E0600F241BF582E43410F5831205E095
:1010EF0012002E9062761205F0D0E0C3947FFDE4DB
:1010FF009400FC1203EF7B187A727931783F12015A
:10110F001F9062761205D412002E30070B7BD97A0E
:09111F005B79DE783E12011F220B
:10042800C0E0EFFBEEFAEDF9ECF812011FD0E0F5B1
:10043800F0EFFBEEFAEDF9ECF81205C4A3A3A3A3C1
:10044800E8C0E0E9C0E0EAC0E0EBC0E0C0F01201BB
:100458001F1205E0A3A3A3A312002ED0F0D0E0FB47
:0D046800D0E0FAD0E0F9D0E0F8D5F0D422D1
:101455000214D5E493A3F8E493A34003F68001F2C4
:1014650008DFF48029E493A3F85407240CC8C33398
:10147500C4540F4420C8834004F456800146F6DF67
:10148500E4800B0102040810204080900A6EE47E7F
:10149500019360BCA3FF543F30E509541FFEE4935C
:1014A500A360010ECF54C025E060A840B8E493A323
:1014B500FAE493A3F8E493A3C8C582C8CAC583CA4E
:1014C500F0A3C8C582C8CAC583CADFE9DEE780BE06
:010D360000BC
:10047500E88FF0A4CC8BF0A42CFCE98EF0A42CFC26
:100485008AF0EDA42CFCEA8EF0A4CDA8F08BF0A4A4
:100495002DCC3825F0FDE98FF0A42CCD35F0FCEB03
:1004A5008EF0A4FEA9F0EB8FF0A4CFC5F02ECD39C8
:0F04B500FEE43CFCEAA42DCE35F0FDE43CFC2235
:1004C40075F008758200EF2FFFEE33FECD33CDCCEF
:1004D40033CCC58233C5829BED9AEC99E582984072
:1004E4000CF582EE9BFEED9AFDEC99FC0FD5F0D64F
:1004F400E4CEFBE4CDFAE4CCF9A88222B800C1B979
:100504000059BA002DEC8BF084CFCECDFCE5F0CBB6
:10051400F97818EF2FFFEE33FEED33FDEC33FCEBEF
:1005240033FB10D703994004EB99FB0FD8E5E4F9AA
:10053400FA227818EF2FFFEE33FEED33FDEC33FC97
:10054400C933C910D7059BE99A4007EC9BFCE99A8B
:10055400F90FD8E0E4C9FAE4CCFB2275F010EF2FD0
:10056400FFEE33FEED33FDCC33CCC833C810D707D0
:100574009BEC9AE899400AED9BFDEC9AFCE899F80B
:0E0584000FD5F0DAE4CDFBE4CCFAE4C8F9229E
:0E059200C3E49FFFE49EFEE49DFDE49CFC227A
:1005A000EB9FF5F0EA9E42F0E99D42F0E89C45F0B1
:0105B0002228
:1005B100E8600FECC313FCED13FDEE13FEEF13FF28
:0305C100D8F1224C
:1005C400E493FC740193FD740293FE740393FF227D
:0C05D400E0F8A3E0F9A3E0FAA3E0FB22AA
:1005E000E493F8740193F9740293FA740393FB2271
:0C05F000ECF0A3EDF0A3EEF0A3EFF0227E
:1005FC00A8828583F0D083D08212061312061312C0
:10060C000613120613E473E493A3C583C5F0C583E4
:10061C00C8C582C8F0A3C583C5F0C583C8C582C848
:01062C0022AB
:00000001FF
