:03000000020E638A
:0C0E6300787FE4F6D8FD758120020EAA0D
:0C000300000000000000000000000000F1
:0B12E700EF1FAC0670011E4C70F622D9
:10125200AB07AA06EB1BAE0270011A4E60097FAA09
:081262007E051212E780ED2267
:100CD800907120E04480F07F057E001212E7E4FF67
:100CE800FE12125275A75575AC589071327450F0B7
:100CF8009071307403F0907136742FF07F18EF24E0
:100D080066FDE434718D82F583E4F00FEFB433EEC1
:100D1800904011E4935407FF90711CE054F84FF091
:100D2800904017E493547FFF90711DE054804FF07A
:100D3800904010E493FF5401C43333335480FE9041
:100D48007123E0547F4EF0EFC313543F4440FFA398
:100D5800E054804FF0904012E493FF540FFE9071DE
:100D680046E054F04EF0EFC4540FFF90714FE0543A
:100D7800F04FF0904013E493543FFF907140E054DB
:100D8800C04FF0904014E493907126F0904015E421
:0E0D980093907128F0904016E49390712AF029
:010DA600222A
:0707A1004462860000000025
:100DA700C3906046E094B8906045E0940B504A7455
:100DB70055FFFEFD7C41906286E0F8A3E0F9A3E0D1
:100DC700FAA3E0FB1205605003020E62906286E010
:100DD700FCA3E0FDA3E0FEA3E0FF7455FBFAF9785E
:100DE7004112046B906286120764906046E004F03B
:100DF7007006906045E004F022C3906046E094706E
:100E0700906045E0941750497F557E557DD57C40CD
:100E1700906286E0F8A3E0F9A3E0FAA3E0FB1205ED
:100E2700604038906286E0FCA3E0FDA3E0FEA3E00B
:100E3700FF7B557A5579D5784012046B90628612FC
:100E47000764906046E004F07006906045E004F0A7
:0C0E5700229060457417F0A37470F02224
:100F730075D9DD120CD812000F1212371210A812F5
:100F830011A11212177F02121159C294E490604505
:100F9300F0A3F0C3906046E09470906045E094172E
:100FA30050321212B630051FC205C3906284E0941A
:100FB300C3906283E09408400E906046E094709082
:100FC3006045E09417500D300305C203120DA712BC
:100FD300129280BF1212B6120BCC1210471212F2E9
:020FE30080F29A
:1007A800426045000042626917704260430000429F
:1007B80062650000426263100041626B00621C6067
:1007C80047000000000000000000000000000000DA
:1007D8000000000000000000000000000000000011
:1007E8000000000000000000000000000000000001
:1007F80000000000000000000000000000000000F1
:1008080000000000000000000000000000000000E0
:1008180000000000000000000000000000000000D0
:1008280000000000000000000000000000000000C0
:1008380000000000000000000000000000000000B0
:1008480000000000000000000000000000000000A0
:100858000000000000000000000000000000000090
:100868000000000000000000000000000000000080
:100878000000000000000000000000000000000070
:100888000000000000000000000000000000000060
:100898000000000000000000000000000000000050
:1008A8000000000000000000000000000000000040
:1008B8000000000000000000000000000000000030
:1008C8000000000000000000000000000000000020
:1008D8000000000000000000000000000000000010
:1008E8000000000000000000000000000000000000
:1008F80000000000000000000000000000000000F0
:1009080000000000000000000000000000000000DF
:1009180000000000000000000000000000000000CF
:1009280000000000000000000000000000000000BF
:1009380000000000000000000000000000000000AF
:10094800000000000000000000000000000000009F
:10095800000000000000000000000000000000008F
:10096800000000000000000000000000000000007F
:10097800000000000000000000000000000000006F
:10098800000000000000000000000000000000005F
:10099800000000000000000000000000000000004F
:1009A800000000000000000000000000000000003F
:1009B800000000000000000000000000000000002F
:1009C800000000000000000000000000000000001F
:1009D8000000000000000000000000000042626704
:1009E800000060406000FFFF000000000000000001
:1009F80000000000000000000000000000000000EF
:100A080000000000000000000000000000000000DE
:100A180000000000000000000000000000000000CE
:100A2800000000000000416040004160410041605A
:040A38004200C106B1
:1010A8007812E24401F278567407F278277417F23E
:1010B80018746FF27833E4F218F27819E24401F206
:1010C8007811E24401F27817E24401F27812E2441E
:1010D80001F27814E24401F27818E24401F278D37C
:1010E800E254CFF2E24410F2E254FCF2E24401F29C
:0C10F80090718AE4F090718C740AF02270
:10129200906045E07833F2A3E018F27817E2440157
:0212A200F22236
:1000270090626C12077000000000906000E0F470AE
:0900370003A3E0F460030200CC15
:10004000906270F0A3F0906270E0FEA3E0FFC394B2
:1000500020EE9400502E906283E0FCA3E0FDEF259B
:10006000E0FFEE33FE74002FF58274603EF583EC02
:10007000F0A3EDF0906271E004F070CA906270E05D
:1000800004F080C2E4906270F0A3F0906270E0FE31
:10009000A3E0FFC3940EEE9401400302012D906291
:1000A00083E0FCA3E0FDEF25E0FFEE33FE74472F75
:1000B000F58274603EF583ECF0A3EDF0906271E0A0
:0C00C00004F070C7906270E004F080BF94
:1000CC00906040E025E02400F582E43460F583E0A4
:1000DC00FFA3E0906270CFF0A3EFF0906283E0FE9C
:1000EC00A3E0FF906271E02FF0906270E03EF0E0D0
:1000FC00C313FEA3E013FF906270EEF0A3EFF09039
:10010C006040E025E02400F582E43460F583EEF0F5
:10011C00A3EFF0906040E004F0E0C394204002E4D0
:01012C00F0E2
:10012D00E4906270F0A3F090626CE0F8A3E0F9A3A4
:10013D00E0FAA3E0FB906271E025E0FF906270E0D1
:10014D0033FE74002FF58274603EF583E0FEA3E06C
:10015D00FFE4FCFDEB2FFFEA3EFEED39FDEC38FC34
:10016D0090626C120764906271E004F07006906208
:10017D0070E004F0906270E07004A3E0642070A75A
:10018D0090626CE0FCA3E0FDA3E0FEA3E0FF780528
:09019D0012075190626C12076414
:1001A60090626CA3A3E0FEA3E0FDAC06906268E05B
:1001B60025E0FF906267E033FE74472FF582746096
:1001C6003EF583ECF0A3EDF0906268E004F0700673
:1001D600906267E004F0C3906268E0940E906267F4
:0901E600E094014004E4F0A3F0F0
:1001EF00E4906270F0A3F0906265F0A3F090626308
:1001FF007410F0A3E4F0906270E0FEA3E0FFC394EC
:10020F000EEE940140030202D3EF25E0FFEE33FE22
:10021F0074472FF58274603EF583E0FCA3E0FD90F8
:10022F006265E0FAA3E0FBD3ED9BEC9A40167447AE
:10023F002FF58274603EF583E0FFA3E0906265CFF7
:10024F00F0A3EFF0906271E025E0FF906270E03371
:10025F00FE74472FF58274603EF583E0FCA3E0FD4A
:10026F00906263E0FAA3E0FBC3ED9BEC9A50167427
:10027F00472FF58274603EF583E0FFA3E090626341
:10028F00CFF0A3EFF0906263E0FEA3E0FFC39062B4
:10029F0066E09FFF906265E09EFED3EF9450EE9470
:1002AF0000400890626B741EF0800890626BE060F3
:1002BF000214F0906271E004F07006906270E00436
:0402CF00F002020532
:1002D300E47F8B7E06FDFC90626CE0F8A3E0F9A35B
:1002E300E0FAA3E0FBC312074050202006030203F9
:1002F3007EE47F8B7E06FDFC90626CE0F8A3E0F960
:10030300A3E0FAA3E0FB1207404070E4906041F0E1
:10031300A3F0D20690626BE0FFB41E3214F0D390C8
:10032300626AE094B8906269E0940B400CA3E02405
:10033300FFF0906269E034FFF0C390626AE094B822
:10034300906269E0940B4003020467020407EF60C4
:1003530003020467200403020467C204C390626AB1
:10036300E09470906269E094174003020467A3E08D
:1003730004F07006906269E004F022E47FC37E0516
:10038300FDFC90626CE0F8A3E0F9A3E0FAA3E0FBC4
:10039300D31207404076E47F6D7E06FDFC90626CCD
:1003A300E0F8A3E0F9A3E0FAA3E0FBD3120740408F
:1003B30008906041E064047053200503020467C29F
:1003C30005906041E0C394045003E004F0E49060BE
:1003D30042F0C206D390626AE094B8906269E094F6
:1003E3000B40028069C390626AE094B8906269E04E
:1003F300940B500DA3E004F07006906269E004F0E2
:1004030022906269740BF0A374B8F022E47FC37E78
:1004130005FDFC90626CE0F8A3E0F9A3E0FAA3E029
:10042300FBD31207404006906042E060373005344A
:10043300C2059060427401F0E4906041F0C206D3BB
:1004430090626AE09408906269E09407400DA3E02B
:1004530024FEF0906269E034FFF022906269740731
:04046300F0A304F00E
:010467002272
:0312F200C2942281
:1012A400906269E0FFA3E0906045CFF0A3EFF00205
:0212B400129294
:100A3C0041628500C10141628000C10042628300B5
:060A4C000042628100007F
:0D000F0078F2E24403F278E3E244C0F2220A
:10115900906280E06F6040EFF024FE601904703007
:10116900907123E054F8F0E0441EF0907122740766
:10117900F07599188014907123E054D8F0E0441D5B
:10118900F09071227407F07599177869E24448F272
:071199007F017E00121252DB
:0111A000222C
:100A6A00E4906275F0A3F0A3F09062781207700028
:100A7A00000000E490627CF0A3F074FF90627EF0C4
:100A8A00A3F0E4906275F07869E24401F2786BE2CF
:100A9A0030E1FAAF93EF75F010A4FFE594C4540F58
:100AAA00FDEF4DFF906276E5F0F0A3EFF07402F2ED
:100ABA00906275E0C39402406D90627CE0FEA3E010
:100ACA00FFD3906277E09F906276E09E400CE0FF51
:100ADA00A3E090627CCFF0A3EFF090627EE0FEA3E9
:100AEA00E0FFC3906277E09F906276E09E500CE050
:100AFA00FFA3E090627ECFF0A3EFF0906278E0F877
:100B0A00A3E0F9A3E0FAA3E0FB906276E0FEA3E09B
:100B1A00FFE4FCFDEB2FFFEA3EFEED39FDEC38FC6D
:100B2A00906278120764906275E004F0E0641460E1
:100B3A0003020A91906278E0FCA3E0FDA3E0FEA321
:100B4A00E0FFC006C00790627CE0FEA3E0FBAA06B5
:100B5A00D007D006C3EF9BFFEE9AFEED9400FDECA2
:100B6A009400FC906278120764906278E0FCA3E03B
:100B7A00FDA3E0FEA3E0FFC006C00790627EE0FE90
:100B8A00A3E0FBAA06D007D006C3EF9BFFEE9AFEAE
:100B9A00ED9400FDEC9400FC906278120764906278
:100BAA0078E0FCA3E0FDA3E0FEA3E0FF78041207CF
:100BBA0051906276EEF0A3EFF0906276E0FEA3E049
:010BCA00FF2B
:010BCB002207
:1011E10090627112077000000000120A6AE4FCFDAF
:1011F100906271120764E47F0CFEFDFC906271E065
:10120100F8A3E0F9A3E0FAA3E0FB120623E47B0ACA
:06121100FAF9F80206AE36
:100BCC0090626C12077000000000906285E0640275
:100BDC007003020CD77F011211591211E190626C53
:100BEC00120764906285E070587FEA7E0BFDFC90E2
:100BFC00626CE0F8A3E0F9A3E0FAA3E0FBC31207F0
:030C0C0040503E17
:100C0F00E4906270F0F01211E190626C120764E4EC
:100C1F007FEA7E0BFDFC90626CE0F8A3E0F9A3E0A5
:100C2F00FAA3E0FBD31207404006E4906285F0225E
:0E0C3F00906270E004F0E0C3940A40CA806244
:0B0C4D00906285E064016003020CD798
:100C580020000FD20090628A120770000000001274
:100C680012D7E47F307E75FDFC90628AE0F8A3E03D
:0D0C7800F9A3E0FAA3E0FBC31207404052CD
:100C8500E4906270F0F01211E190626C120764E476
:100C95007FEA7E0BFDFC90626CE0F8A3E0F9A3E02F
:100CA500FAA3E0FBD312074040079062857401F078
:100CB50022906270E004F0E0C3940A40C990628516
:100CC5007402F012127E90628A1207700000000012
:020CD500C2005B
:010CD70022FA
:10104700906285E070061200270212A4906285E084
:10105700B40123906269740BF0A374B8F0906269CD
:10106700E0FEA3E0FF906045E06E7003A3E06F60D1
:101077002F1212A480E7906285E0B4022390626980
:101087007405F0A374DCF0906269E0FEA3E0FF90C2
:101097006045E06E7003A3E06F60051212A480E75D
:0110A7002226
:1012B6007F02121159120A6A906283EEF0A3EFF0D0
:0112C6002205
:0C0A520041629300C10241629200C103A6
:1012370043A820D2AF75D10178957401F21874765E
:0B124700F2789174A0F21874FDF222FE
:1012C7007890E2541FF2E244C0F243A820D2AF2242
:10126A007890E2541FF2E244A0F27892E4F208F293
:04127A0053A8DF2274
:03001E00020EEFE0
:100EEF00C0E0C0F0C083C082C0D075D000C000C0C9
:100EFF0001C002C003C004C005C006C0077891E25C
:100F0F0030E746E24480F2906293E004F090629200
:100F1F00E004F0A3E0C394194004E4F0D20290621D
:100F2F0092E0C394014022E4F0906286E0FCA3E0DB
:100F3F00FDA3E0FEA3E0FFE4FBFA7980783F120403
:100F4F006F906286120764D203D007D006D005D007
:100F5F0004D003D002D001D000D0D0D082D083D023
:040F6F00F0D0E032AC
:070A5E0044628A0000000061
:1011A100E5B154CF42B1789CE254E3F2E24414F247
:1011B100E254FCF2E24401F208E24480F2E244200B
:1011C100F278A1743BF2187460F2789EE4F208F2AE
:1011D100789CE2541FF2E244A0F253A8BFD2AF229E
:1012D700789CE2541FF2E244C0F243A840D2AF2206
:10127E00789CE2541FF2E244A0F2789EE4F208F267
:04128E0053A8BF2280
:03002100021104C5
:10110400C0E0C0F0C083C082C0D075D000C000C0B1
:1011140004C005C006C007789DE230E723E244809E
:10112400F290628AE0FCA3E0FDA3E0FEA3E02401C8
:10113400FFE43EFEE43DFDE43CFC90628A12076459
:10114400D007D006D005D004D000D0D0D082D08330
:05115400D0F0D0E032F4
:040A6500C104C10502
:1012170043A901D2AF75D104907105E4F090710430
:101227007424F090710174A0F090710074FDF022A5
:03002400020FE5E3
:100FE500C0E0C083C082C0D0907101E030E74AE024
:100FF5004480F090628FE004F0700690628EE00409
:10100500F0906291E004F07006906290E004F0C305
:10101500906291E0940D906290E094004006E4F0B7
:10102500A3F0D205C390628FE0940D90628EE09498
:10103500004006E4F0A3F0D204D0D0D082D083D013
:02104500E03297
:1004680002060EE86480F8E933E83360110460F0AE
:10047800ED33EC337009E8FCE9FDEAFEEBFF2204FA
:1004880060DED3EB9FEA9EE99DE8C2E78CF0C2F7F5
:1004980095F0400CE8CCF8E9CDF9EACEFAEBCFFBC1
:1004A8001205D985D0F05804700320D5B3E804703C
:1004B800075002B2D502061892D5EC0460F7E4CCD6
:1004C800C0E0C398F8603B94186008400DD0E0FB8A
:1004D8000205F0E4FBFAC9FC8028E830E406E4C928
:1004E800FBE4CAFCE830E305E4C9CACBFCE85407DE
:1004F8006010F8C3E913F9EA13FAEB13FBEC13FCE9
:10050800D8F130F52FC3E49CFCEF9BFFEE9AFEED8B
:1005180099FDD0E0FBEF4E4D4C701222DB03020632
:1005280015EC2CFCEF33FFEE33FEED33FDED30E739
:10053800EB0205F0EF2BFFEE3AFEED39FDD0E0FBC4
:1005480050130BBB0003020618ED13FDEE13FEEF6C
:0805580013FFEC13FC0205F097
:1005600074F8CC6480CCC86480C8F58204604FC342
:10057000EB9FF5F0EA9E42F0E99D42F0E89C45F0E1
:10058000603C501DE5825FFFE582D313CB5BCBF46B
:100590002B5582FB50280ABA002409B90020088094
:1005A0001DE5825BFBE582D313CF5FCFF4C3132F2E
:1005B0005582FF50090EBE00050DBD00010CC3EBB6
:1005C0009FF5F0EA9E42F0E99D42F0E89C45F0601C
:0905D00007CC4820E701B3EC223E
:1005D900E9D2E7C933E833F892D5EDD2E7CD33EC68
:0705E90033FC5002B2D522E1
:1005F000EC30E7100FBF000C0EBE00080DBD00046C
:100600000BEB6014A2D5EB13FCED92E7FD2274FF17
:10061000FCFDFEFF22E480F8A2D574FF13FC7D8070
:03062000E480EF84
:100E6F00020F73E493A3F8E493A34003F68001F217
:100E7F0008DFF48029E493A3F85407240CC8C33384
:100E8F00C4540F4420C8834004F456800146F6DF53
:100E9F00E4800B01020408102040809007A1E47E3B
:100EAF00019360BCA3FF543F30E509541FFEE49348
:100EBF00A360010ECF54C025E060A840B8E493A30F
:100ECF00FAE493A3F8E493A3C8C582C8CAC583CA3A
:100EDF00F0A3C8C582C8CAC583CADFE9DEE780BEF2
:010A6900008C
:10062300E88FF0A4CC8BF0A42CFCE98EF0A42CFC76
:100633008AF0EDA42CFCEA8EF0A4CDA8F08BF0A4F4
:100643002DCC3825F0FDE98FF0A42CCD35F0FCEB53
:100653008EF0A4FEA9F0EB8FF0A4CFC5F02ECD3918
:0F066300FEE43CFCEAA42DCE35F0FDE43CFC2285
:1006720075F008758200EF2FFFEE33FECD33CDCC3F
:1006820033CCC58233C5829BED9AEC99E5829840C2
:100692000CF582EE9BFEED9AFDEC99FC0FD5F0D69F
:1006A200E4CEFBE4CDFAE4CCF9A88222B800C1B9C9
:1006B2000059BA002DEC8BF084CFCECDFCE5F0CB07
:1006C200F97818EF2FFFEE33FEED33FDEC33FCEB40
:1006D20033FB10D703994004EB99FB0FD8E5E4F9FB
:1006E200FA227818EF2FFFEE33FEED33FDEC33FCE8
:1006F200C933C910D7059BE99A4007EC9BFCE99ADC
:10070200F90FD8E0E4C9FAE4CCFB2275F010EF2F20
:10071200FFEE33FEED33FDCC33CCC833C810D70720
:100722009BEC9AE899400AED9BFDEC9AFCE899F85B
:0E0732000FD5F0DAE4CDFBE4CCFAE4C8F922EE
:10074000EB9FF5F0EA9E42F0E99D42F0E89C45F00F
:010750002286
:10075100E8600FECC313FCED13FDEE13FEEF13FF86
:03076100D8F122AA
:0C076400ECF0A3EDF0A3EEF0A3EFF02208
:10077000A8828583F0D083D0821207871207871260
:100780000787120787E473E493A3C583C5F0C58385
:10079000C8C582C8F0A3C583C5F0C583C8C582C8D3
:0107A0002236
:00000001FF
